:100000000C942A000C9447000C9447000C94470071
:100010000C9447000C9447000C9447000C94470044
:100020000C9447000C9447000C9447000C94470034
:100030000C946C000C9447000C9447000C949800AE
:100040000C9447000C9447000C9447000C94470014
:100050000C94470011241FBECFE5D8E0DEBFCDBF12
:1000600010E0A0E6B0E0E8EAF1E002C005900D92F1
:10007000A236B107D9F720E0A2E6B0E001C01D9298
:10008000A636B207E1F70E9449000C94D2000C9406
:1000900000008FEF8ABB80ED0E94540081E090E069
:1000A0000E9456008BBBFACF82B9089584EC86BFBC
:1000B00006B607FEFDCF01C081B181B18036E1F700
:1000C00084EC86BF06B607FEFDCF01C081B181B1C9
:1000D0008038E1F783B108951F920F920FB60F9207
:1000E00011242F933F934F935F936F937F938F933D
:1000F0009F93AF93BF93EF93FF93E0916200F091D2
:1001000063000780F085E02D0995FF91EF91BF9185
:10011000AF919F918F917F916F915F914F913F919F
:100120002F910F900FBE0F901F9018958CB90895C6
:100130001F920F920FB60F9211242F933F934F935C
:100140005F936F937F938F939F93AF93BF93EF933F
:10015000FF9380916000E0916400F0916500E80FEA
:10016000F11D8081882341F00E94960080916000FB
:100170008F5F8093600005C081E080936000809372
:100180006100FF91EF91BF91AF919F918F917F910E
:100190006F915F914F913F912F910F900FBE0F90F4
:0801A0001F901895F894FFCFA1
:0201A800010153
:00000001FF
