S018000041746D65676133325F447269766572732E737265631A
S11300000C942A000C9447000C9447000C9447006D
S11300100C9447000C9447000C9447000C94470040
S11300200C9447000C9447000C9447000C94470030
S11300300C9447000C9447000C9447000C94470020
S11300400C9447000C9447000C9447000C94470010
S11300500C94470011241FBECFE5D8E0DEBFCDBF0E
S113006010E0A0E6B0E0EEE6F4E002C005900D92E8
S1130070A237B107D9F720E0A2E7B0E001C01D9292
S1130080A437B207E1F70E94DD010C9435020C9409
S1130090000040E068E086E390E00E94260283E2EC
S11300A094EF0197F1F700C0000041E068E086E3B7
S11300B090E00E9426020895CF93C82F6FE089E351
S11300C090E00E9432026C2F607F89E390E00E94EE
S11300D0320241E062E086E390E00E94260240E0C2
S11300E064E086E390E00E9426020E9449006FE0EB
S11300F089E390E00E9432026C2F6295607F89E36D
S113010090E00E94320241E062E086E390E00E94C7
S1130110260240E064E086E390E00E9426020E940A
S11301204900CF910895EF92FF920F931F93CF93BD
S1130130DF93C2E7D0E010E118831982BE0189E39E
S113014090E00E94E4016894EE24E5F8E8821982C4
S1130150BE0189E390E00E94E4016894FF24F6F86C
S1130160F8821982BE0189E390E00E94E40100E86C
S113017008831982BE0189E390E00E94E40141E012
S113018064E086E390E00E94260240E062E086E3B9
S113019090E00E9426020E944900188312E019830D
S11301A0BE0189E390E00E94E401E8821983BE0164
S11301B089E390E00E94E401F8821983BE0189E397
S11301C090E00E94E40108831983BE0189E390E072
S11301D00E94E40140E064E086E390E00E9426028D
S11301E0DF91CF911F910F91FF90EF900895CF93DE
S11301F0C82F0E9493006FE089E390E00E943202CE
S11302006C2F607F89E390E00E94320240E064E05A
S113021086E390E00E94260240E062E086E390E0FC
S11302200E9426020E9449006FE089E390E00E9448
S113023032026C2F6295607F89E390E00E94320263
S113024040E064E086E390E00E94260240E062E041
S113025086E390E00E9426020E944900CF9108950F
S113026081E00E94F70008951F93CF93DF9387E8FE
S113027093E10197F1F700C00000C2E7D0E012E07B
S113028018831983BE0186E390E00E94E40184E0B0
S113029088831983BE0186E390E00E94E40188E02C
S11302A088831983BE0186E390E00E94E40180E123
S11302B088831983BE0189E390E00E94E40180E20F
S11302C088831983BE0189E390E00E94E40180E4FD
S11302D088831983BE0189E390E00E94E40180E8E9
S11302E088831983BE0189E390E00E94E40140E021
S11302F068E086E390E00E94260240E062E086E344
S113030090E00E94260240E064E086E390E00E94D0
S1130310260285EA9EE00197F1F700C000000E94E2
S1130320300182E00E94F70088E20E94F70086E034
S11303300E94F70080E80E94F7008FE00E94F70017
S1130340DF91CF911F910895882321F0813021F00E
S113035080E003C080E801C080EC603108F4860FBF
S11303600E94F70008950F931F93CF93DF938C019E
S1130370C0E0D0E019C021960F5F1F4F0E945C00BF
S1130380C031D10529F460E081E00E94A4010CC0D1
S1130390CE018097029740F40E94300160E080E033
S11303A00E94A401C0E0D0E0F80180818111E3CF74
S11303B0DF91CF911F910F9108950E94340180E63F
S11303C090E00E94B301FFCFDC01FB018181823008
S11303D011F08430E1F411969C9111978081892B5E
S11303E011968C9311978181823049F412969C91D5
S11303F0129780818095892312968C930895129682
S11304009C9112978081892B12968C930895823047
S1130410E0F411969C91119780818095892311961F
S11304208C9311978181811109C012969C91129726
S113043080818095892312968C93089512969C91BD
S113044012978081892B12968C930895FC01413078
S113045021F48281682B62830895928160956923D7
S111046062830895FC0162830895F894FFCF2F
S113046E486F7373616D20456C6D61676872627954
S105047E000078
S9030000FC
