S018000041746D65676133325F447269766572732E737265631A
S11300000C942A000C9447000C9447000C9447006D
S11300100C9447000C9447000C9447000C94470040
S11300200C9447000C9447000C9447000C94470030
S11300300C9493000C9447000C9447000C94BF005C
S11300400C9447000C9447000C9447000C94470010
S11300500C94470011241FBECFE5D8E0DEBFCDBF0E
S113006010E0A0E6B0E0EAE3F2E002C005900D92F1
S1130070A236B107D9F720E0A2E6B0E001C01D9294
S1130080A636B207E1F70E9449000C941B010C94B8
S1130090000088E490E00E946D00C0E02FE986E84B
S11300A091E0215080409040E1F700C000000E94A0
S11300B0800080ED90E00E94890081B18831E9F7E9
S11300C0D1E0DC0F8C2F90E00E94890081B188324E
S11300D0E9F70E949000CD2FE1CF9B01AC0160E0D5
S11300E072E18AE790E00E94F900DA01C9014097C1
S11300F0A109B109B695A7959795879580B90895F3
S113010084EA86BF06B607FEFDCF81B18830E9F7E1
S1130110089583B984E886BF06B607FEFDCF089527
S113012084E986BF08951F920F920FB60F9211248F
S11301302F933F934F935F936F937F938F939F93EB
S1130140AF93BF93EF93FF93E0916200F09163004C
S11301500780F085E02D0995FF91EF91BF91AF9154
S11301609F918F917F916F915F914F913F912F91CB
S11301700F900FBE0F901F9018958CB908951F9281
S11301800F920FB60F9211242F933F934F935F93C7
S11301906F937F938F939F93AF93BF93EF93FF934B
S11301A080916000E0916400F0916500E80FF11D1A
S11301B08081882341F00E94BD00809160008F5FA0
S11301C08093600005C081E08093600080936100AB
S11301D0FF91EF91BF91AF919F918F917F916F911B
S11301E05F914F913F912F910F900FBE0F901F90F1
S11301F01895A1E21A2EAA1BBB1BFD010DC0AA1F54
S1130200BB1FEE1FFF1FA217B307E407F50720F07B
S1130210A21BB30BE40BF50B661F771F881F991FF6
S11302201A9469F760957095809590959B01AC013F
S10D0230BD01CF010895F894FFCF3B
S105023A0101BC
S9030000FC
