:100000000C942A000C9447000C9447000C94470071
:100010000C9447000C9447000C9447000C94470044
:100020000C9447000C9447000C9447000C94470034
:100030000C9447000C9447000C9447000C94470024
:100040000C9447000C9447000C9447000C94470014
:100050000C94470011241FBECFE5D8E0DEBFCDBF12
:1000600010E0A0E6B0E0EAEFF4E002C005900D92E7
:10007000AA38B107D9F720E0AAE8B0E001C01D9284
:10008000AC38B207E1F70E949C010C947B020C94FF
:10009000000040E068E086E390E00E940C0283E20A
:1000A00094EF0197F1F700C0000041E068E086E3BB
:1000B00090E00E940C020895EF92FF920F931F931D
:1000C000CF93DF93CAE8D0E010E118831982BE0114
:1000D00089E390E00E94CA016894EE24E5F8E88282
:1000E0001982BE0189E390E00E94CA016894FF244E
:1000F000F6F8F8821982BE0189E390E00E94CA01F5
:1001000000E808831982BE0189E390E00E94CA01D9
:1001100041E064E086E390E00E940C0240E062E08F
:1001200086E390E00E940C020E944900188312E0CE
:100130001983BE0189E390E00E94CA01E882198315
:10014000BE0189E390E00E94CA01F8821983BE01D2
:1001500089E390E00E94CA0108831983BE0189E304
:1001600090E00E94CA0140E064E086E390E00E94D3
:100170000C02DF91CF911F910F91FF90EF900895A6
:10018000CF93C82F0E945C006C2F89E390E00E94FF
:10019000180240E062E086E390E00E940C0240E03A
:1001A00064E086E390E00E940C020E944900CF9137
:1001B0000895CF93C82F0E945C006C2F89E390E0D4
:1001C0000E94180241E062E086E390E00E940C0287
:1001D00040E064E086E390E00E940C020E94490047
:1001E000CF91089581E00E94C00008951F93CF939E
:1001F000DF9387E893E10197F1F700C00000CAE8B8
:10020000D0E012E018831983BE0186E390E00E94DB
:10021000CA0184E088831983BE0186E390E00E94CE
:10022000CA0188E088831983BE0186E390E00E94BA
:10023000CA0180E188831983BE0189E390E00E94AE
:10024000CA0180E288831983BE0189E390E00E949D
:10025000CA0180E488831983BE0189E390E00E948B
:10026000CA0180E888831983BE0189E390E00E9477
:10027000CA0140E068E086E390E00E940C0240E0A2
:1002800062E086E390E00E940C0240E064E086E3D6
:1002900090E00E940C0285EA9EE00197F1F700C011
:1002A00000000E94F20088E30E94C00086E00E94E5
:1002B000C00080E80E94C0008EE00E94C000DF9174
:1002C000CF911F910895882321F0813021F080E0A3
:1002D00003C080E801C080EC603108F4860F0E9402
:1002E000C00008950F931F93CF93DF938C01C0E05C
:1002F000D0E019C021960F5F1F4F0E94D900C03176
:10030000D10529F460E081E00E9463010CC0CE01B8
:100310008097029740F40E94F20060E080E00E9423
:100320006301C0E0D0E0F80180818111E3CFDF916B
:10033000CF911F910F910895CF93DF93CDB7DEB783
:10034000C456D1090FB6F894DEBF0FBECDBF0E94D0
:10035000F6000E941B0280E690E00E94720160E0BD
:1003600081E00E9463018FE690E00E9444020E94B7
:10037000F2008CE790E00E94720160E081E00E9450
:100380006301CE0101960E945A02CE0101960E949D
:100390007201F3CFDC01FB018181823011F08430E6
:1003A000E1F411969C9111978081892B11968C9381
:1003B00011978181823049F412969C911297808125
:1003C0008095892312968C93089512969C9112978A
:1003D0008081892B12968C9308958230E0F41196D7
:1003E0009C91119780818095892311968C93119708
:1003F0008181811109C012969C911297808180950C
:10040000892312968C93089512969C91129780815D
:10041000892B12968C930895FC01413021F482813E
:10042000682B6283089592816095692362830895A1
:10043000FC016283089583E389B98BB18D7F8BB909
:1004400080B58F7E80BD80B58F7D80BD80B5826098
:1004500080BD80B5846080BD8AB18B7F8AB98AB146
:100460008B7F8AB98AB180618AB98AB188608AB97A
:1004700080B58E7F80BD08955D9BFECF8CB90895B9
:100480005F9BFECF8CB108950F931F93CF938C0188
:10049000C0E003C00E943C02CF5FF801EC0FF11DE9
:1004A00080818111F7CF8DE00E943C02CF911F9196
:1004B0000F910895EF92FF920F931F93CF938C01AA
:1004C0000E944002F8018083C0E008C0CF5F78013D
:1004D000EC0EF11C0E944002F7018083F801EC0F42
:1004E000F11D80818D3091F71082CF911F910F9176
:0A04F000FF90EF900895F894FFCFFD
:1004FA005472616E736D6974206D6F64653A004859
:10050A006F7373616D204261686161005265636552
:0A051A00697665206D6F64653A0094
:00000001FF
