S018000041746D65676133325F447269766572732E737265631A
S11300000C942A000C9447000C9447000C9447006D
S11300100C9447000C9447000C9447000C94470040
S11300200C9447000C9447000C9447000C94470030
S11300300C9467000C9447000C9447000C949300B4
S11300400C9447000C9447000C9447000C94470010
S11300500C94470011241FBECFE5D8E0DEBFCDBF0E
S113006010E0A0E6B0E0EEE9F1E002C005900D92E8
S1130070A236B107D9F720E0A2E6B0E001C01D9294
S1130080A636B207E1F70E9449000C94CD000C9407
S1130090000080ED0E945800C0E081E090E00E94E2
S11300A05A00D1E0DC0F8C2F0E946000CD2FF5CFD9
S11300B082B9089584EC86BF06B607FEFDCF089585
S11300C083B984E886BF06B607FEFDCF08951F9264
S11300D00F920FB60F9211242F933F934F935F9378
S11300E06F937F938F939F93AF93BF93EF93FF93FC
S11300F0E0916200F09163000780F085E02D09959E
S1130100FF91EF91BF91AF919F918F917F916F91EB
S11301105F914F913F912F910F900FBE0F901F90C1
S113012018958CB908951F920F920FB60F9211244F
S11301302F933F934F935F936F937F938F939F93EB
S1130140AF93BF93EF93FF9380916000E0916400BD
S1130150F0916500E80FF11D8081882341F00E9431
S11301609100809160008F5F8093600005C081E002
S11301708093600080936100FF91EF91BF91AF91F4
S11301809F918F917F916F915F914F913F912F91AB
S11101900F900FBE0F901F901895F894FFCF9C
S105019E010159
S9030000FC
