:100000000C942A000C9434000C9434000C943400AA
:100010000C9434000C9434000C9434000C94340090
:100020000C9434000C9434000C9434000C94340080
:100030000C9434000C9434000C9434000C94340070
:100040000C9434000C9434000C9434000C94340060
:100050000C94340011241FBECFE5D8E0DEBFCDBF25
:100060000E9436000C9472000C940000CF93DF9332
:100070001F92CDB7DEB78FEF8ABB84B38E7F84BB70
:1000800085B3816085BB19829899FECF298181E073
:1000900090E002C0880F991F2A95E2F79BB3892B45
:1000A0008BBB89818F5F8983989BFECF8981883044
:1000B00059F714C0989912C0898181508983298188
:1000C00081E090E002C0880F991F2A95E2F78095A1
:1000D00090959BB389238BBB989BFECF898181111F
:0800E000E9CFD2CFF894FFCF65
:00000001FF
