:100000000C942A000C9447000C9447000C94470071
:100010000C9447000C9447000C9447000C94470044
:100020000C9447000C9447000C9447000C94470034
:100030000C9420030C9447000C9447000C944C0340
:100040000C9447000C9447000C9447000C94470014
:100050000C94470011241FBECFE5D8E0DEBFCDBF12
:1000600010E0A0E6B0E0E0E9F7E002C005900D92F4
:10007000A836B107D9F720E0A8E6B0E001C01D928C
:10008000AE36B207E1F70E94B9010C94C6030C9496
:10009000000040E068E086E390E00E94570283E2BF
:1000A00094EF0197F1F700C0000041E068E086E3BB
:1000B00090E00E9457020895EF92FF920F931F93D2
:1000C000CF93DF93CCE6D0E010E118831982BE0114
:1000D00089E390E00E9415026894EE24E5F8E88236
:1000E0001982BE0189E390E00E9415026894FF2402
:1000F000F6F8F8821982BE0189E390E00E941502A9
:1001000000E808831982BE0189E390E00E9415028D
:1001100041E064E086E390E00E94570240E062E044
:1001200086E390E00E9457020E944900188312E083
:100130001983BE0189E390E00E941502E8821983C9
:10014000BE0189E390E00E941502F8821983BE0186
:1001500089E390E00E94150208831983BE0189E3B8
:1001600090E00E94150240E064E086E390E00E9487
:100170005702DF91CF911F910F91FF90EF9008955B
:10018000CF93C82F0E945C006C2F89E390E00E94FF
:10019000630240E062E086E390E00E94570240E0A4
:1001A00064E086E390E00E9457020E944900CF91EC
:1001B0000895CF93C82F0E945C006C2F89E390E0D4
:1001C0000E94630241E062E086E390E00E945702F1
:1001D00040E064E086E390E00E9457020E944900FC
:1001E000CF91089581E00E94C00008951F93CF939E
:1001F000DF9387E893E10197F1F700C00000CCE6B8
:10020000D0E012E018831983BE0186E390E00E94DB
:10021000150284E088831983BE0186E390E00E9482
:10022000150288E088831983BE0186E390E00E946E
:10023000150280E188831983BE0189E390E00E9462
:10024000150280E288831983BE0189E390E00E9451
:10025000150280E488831983BE0189E390E00E943F
:10026000150280E888831983BE0189E390E00E942B
:10027000150240E068E086E390E00E94570240E00B
:1002800062E086E390E00E94570240E064E086E38B
:1002900090E00E94570285EA9EE00197F1F700C0C6
:1002A00000000E94F20088E30E94C00086E00E94E5
:1002B000C00080E80E94C0008EE00E94C0008CE078
:1002C0000E94C000DF91CF911F910895882321F0F3
:1002D000813021F080E003C080E801C080EC603113
:1002E00008F4860F0E94C00008950F931F93CF93C8
:1002F000DF938C01C0E0D0E019C021960F5F1F4F43
:100300000E94D900C031D10529F460E081E00E944B
:1003100066010CC0CE018097029740F40E94F20063
:1003200060E080E00E946601C0E0D0E0F8018081DA
:100330008111E3CFDF91CF911F910F910895CF935A
:10034000DF9300D000D01F92CDB7DEB74AE050E077
:10035000BE016F5F7F4F0E948603CE0101960E940F
:1003600075010F900F900F900F900F90DF91CF912C
:100370000895CF93DF93CDB7DEB72B970FB6F894E0
:10038000DEBF0FBECDBF0E94F60081E08D8394E0FA
:10039000988798E09F838E831C821B8219861B8618
:1003A0001A86BE016D5F7F4F8DE290E00E9466026B
:1003B0008DE290E00E94A50282E690E00E94750125
:1003C00081E68A8310E08A818B3711F481E68A8383
:1003D00041E0BE016E5F7F4F8DE290E00E940A0314
:1003E00041E0BE016F5F7F4F8DE290E00E941403F9
:1003F00060E081E00E94660189810E94D9008FE45B
:1004000093EC0197F1F700C000008A818F5F8A8327
:100410006AE080E00E9466011A3009F410E0812F42
:1004200090E00E949F011F5FCECFDC01FB01818124
:10043000823011F08430E1F411969C911197808103
:10044000892B11968C9311978181823049F41296F1
:100450009C91129780818095892312968C930895A0
:1004600012969C9112978081892B12968C930895F5
:100470008230E0F411969C911197808180958923B8
:1004800011968C9311978181811109C012969C91CC
:10049000129780818095892312968C9308951296E5
:1004A0009C9112978081892B12968C930895FC0160
:1004B000413021F48281682B628308959281609596
:1004C000692362830895FC0162830895FC01DB01C6
:1004D000709369006093680013968C911397813034
:1004E00051F412968C9112979081892B808381818F
:1004F0008160818306C012968C9112979081892B1E
:10050000808315969C9115978081892B8083149602
:100510009C911497892B808311969C911197892B1C
:1005200080839C91892B808316968C9116978823C3
:1005300041F08FB780688FBF16968C919081892B80
:10054000808380818064808308951F93CF93DF939D
:1005500000D0CDB7DEB7E0916800F09169008081EE
:10056000803149F5898312E01A83BE016F5F7F4FA6
:1005700086E390E00E94150280E289831A83BE011F
:100580006F5F7F4F86E390E00E94150280E48983CD
:100590001A82BE016F5F7F4F86E390E00E941502D2
:1005A00080E889831A83BE016F5F7F4F86E390E006
:1005B0000E94150229C080E189831A82BE016F5F03
:1005C0007F4F86E390E00E94150280E289831A82C1
:1005D000BE016F5F7F4F86E390E00E94150280E4CA
:1005E000898382E08A83BE016F5F7F4F86E390E05C
:1005F0000E94150280E889831A82BE016F5F7F4FD7
:1006000086E390E00E9415020F900F90DF91CF914A
:100610001F910895FC01DB018C918283413019F414
:1006200091819923ECF70895FC01413019F49181EF
:100630009923ECF7828190E0FB01918380830895F8
:100640001F920F920FB60F9211242F933F934F9347
:100650005F936F937F938F939F93AF93BF93EF932A
:10066000FF93E0916800F09169000780F085E02D2C
:100670000995FF91EF91BF91AF919F918F917F91DC
:100680006F915F914F913F912F910F900FBE0F90FF
:100690001F9018958CB908951F920F920FB60F9264
:1006A00011242F933F934F935F936F937F938F9377
:1006B0009F93AF93BF93EF93FF9380916000E0917E
:1006C0006A00F0916B00E80FF11D8081882341F0F2
:1006D0000E944A03809160008F5F8093600005C094
:1006E00081E08093600080936100FF91EF91BF9162
:1006F000AF919F918F917F916F915F914F913F91BA
:100700002F910F900FBE0F901F90189545325105F5
:1007100020F4423010F00C949103FB011082CB01C5
:100720000895BB274A3031F4992322F4BDE2909515
:1007300081959F4F0C949D03BB27FB015527AA274A
:10074000880F991FAA1FA41710F0A41B839550515E
:10075000B9F7A05DAA3308F0A95DA193009779F7D6
:10076000B111B1931192CB010C94B603DC01FC01E1
:10077000672F71917723E1F7329704C07C916D93D5
:1007800070836291AE17BF07C8F30895F894FFCF46
:080790000101536C6176650064
:00000001FF
