S018000041746D65676133325F447269766572732E737265631A
S11300000C942A000C9447000C9447000C9447006D
S11300100C9447000C9447000C9447000C94470040
S11300200C9447000C9447000C9410010C94E900C4
S11300300C9490000C9447000C9447000C943901E4
S11300400C9447000C9447000C9447000C94470010
S11300500C94470011241FBECFE5D8E0DEBFCDBF0E
S113006010E0A0E6B0E0EAEEF2E002C005900D92E6
S1130070A236B107D9F720E0A2E6B0E001C01D9294
S1130080AC36B207E1F70E9449000C9473010C945A
S11300900000CF93DF9300D000D000D0CDB7DEB7FF
S11300A08FEF87BB88E4898382E08B838C8380E332
S11300B08A831E821D82CE0101960E94BA008FEFB0
S11300C00E94E7002FE382E49FE0215080409040AB
S11300D0E1F700C0000088EC0E94E7002FEB86ECFB
S11300E09DE2215080409040E1F700C0000084E68A
S11300F00E94E7002FEB86EC9DE221508040904067
S1130100E1F700C0000080E00E94E7002FEB86ECDE
S11301109DE2215080409040E1F700C00000CFCF25
S11301201F920F920FB60F9211242F933F934F9368
S11301305F936F937F938F939F93AF93BF93EF934B
S1130140FF93E0916200F09163000780F085E02D59
S11301500995FF91EF91BF91AF919F918F917F91FD
S11301606F915F914F913F912F910F900FBE0F9020
S11301701F901895CF93DF93EC0186E0FE01A6E66D
S1130180B0E001900D928A95E1F793B78881892BAD
S113019083BF8981882339F087B3886087BB93B78D
S11301A08981892B83BF93B78A81892B83BF87B3C6
S11301B08E7F87BB99B78B81892B89BF8B818823DD
S11301C019F08FB780688FBFDF91CF9108958CBFEE
S11301D008951F920F920FB60F9211242F933F93FD
S11301E04F935F936F937F938F939F93AF93BF933B
S11301F0EF93FF93E0916A00F0916B000995FF91F2
S1130200EF91BF91AF919F918F917F916F915F918A
S11302104F913F912F910F900FBE0F901F90189503
S11302201F920F920FB60F9211242F933F934F9367
S11302305F936F937F938F939F93AF93BF93EF934A
S1130240FF93E0916A00F0916B000995FF91EF91A3
S1130250BF91AF919F918F917F916F915F914F91DA
S11302603F912F910F900FBE0F901F9018958CB94E
S113027008951F920F920FB60F9211242F933F935C
S11302804F935F936F937F938F939F93AF93BF939A
S1130290EF93FF9380916000E0916400F09165001A
S11302A0E80FF11D8081882341F00E94370180917D
S11302B060008F5F8093600005C081E080936000E0
S11302C080936100FF91EF91BF91AF919F918F91C6
S11302D07F916F915F914F913F912F910F900FBE3E
S10D02E00F901F901895F894FFCFBB
S10502EA01010C
S9030000FC
