S018000041746D65676133325F447269766572732E737265631A
S11300000C942A000C9447000C9447000C9447006D
S11300100C9447000C9447000C9447000C94470040
S11300200C9447000C9447000C94FC000C94D500ED
S11300300C947C000C9447000C9447000C9425010C
S11300400C9447000C9447000C9447000C94470010
S11300500C94470011241FBECFE5D8E0DEBFCDBF0E
S113006010E0A0E6B0E0E2ECF2E002C005900D92F0
S1130070A236B107D9F720E0A2E6B0E001C01D9294
S1130080AE36B207E1F70E945E000C945F010C9457
S11300900000809162009091630001969093630048
S11300A0809362008031974241F495B381E08927BF
S11300B085BB10926300109262000895CF93DF9382
S11300C000D000D000D0CDB7DEB78FEF84BB85B3AE
S11300D08E7F85BB88E0898382E08B838C831A8240
S11300E089E490E09E838D8384E60E94D300CE0150
S11300F001960E94A600FFCF1F920F920FB60F9297
S113010011242F933F934F935F936F937F938F9318
S11301109F93AF93BF93EF93FF93E0916400F091AB
S113012065000780F085E02D0995FF91EF91BF915F
S1130130AF919F918F917F916F915F914F913F917B
S11301402F910F900FBE0F901F901895CF93DF93B0
S1130150EC0186E0FE01A8E6B0E001900D928A95DC
S1130160E1F793B78881892B83BF8981882339F08C
S113017087B3886087BB93B78981892B83BF93B783
S11301808A81892B83BF87B38E7F87BB99B78B8185
S1130190892B89BF8B81882319F08FB780688FBF23
S11301A0DF91CF9108958CBF08951F920F920FB6DF
S11301B00F9211242F933F934F935F936F937F93E9
S11301C08F939F93AF93BF93EF93FF93E0916C0052
S11301D0F0916D000995FF91EF91BF91AF919F91BF
S11301E08F917F916F915F914F913F912F910F90DC
S11301F00FBE0F901F9018951F920F920FB60F927B
S113020011242F933F934F935F936F937F938F9317
S11302109F93AF93BF93EF93FF93E0916C00F091A2
S11302206D000995FF91EF91BF91AF919F918F91CF
S11302307F916F915F914F913F912F910F900FBEDE
S11302400F901F9018958CB908951F920F920FB6B6
S11302500F9211242F933F934F935F936F937F9348
S11302608F939F93AF93BF93EF93FF93809160001D
S1130270E0916600F0916700E80FF11D808188230A
S113028041F00E942301809160008F5F80936000A1
S113029005C081E08093600080936100FF91EF913D
S11302A0BF91AF919F918F917F916F915F914F918A
S11302B03F912F910F900FBE0F901F901895F894B7
S10502C0FFCF6A
S10502C2010134
S9030000FC
