:100000000C942A000C9434000C9434000C943400AA
:100010000C9434000C9434000C9434000C94340090
:100020000C9434000C9434000C9434000C94340080
:100030000C9434000C9434000C9434000C94340070
:100040000C9434000C9434000C9434000C94340060
:100050000C94340011241FBECFE5D8E0DEBFCDBF25
:100060000E944A000C947C000C94000087B3806BC3
:1000700087BB8DB181658DB9089598B39F7E98BB7C
:100080008FB9779BFECF6FB9779BFECF88B3806126
:1000900088BB08950E9436006FEF89E00E943D0002
:1000A0006FE08AE00E943D0067E08BE00E943D0027
:1000B00061E08CE00E943D00D0E0C1E011C011E0A1
:1000C0001D0F6D2F8C2F0E943D002FE58AEE90E0D2
:1000D000215080409040E1F700C00000CF5FD12F59
:1000E000C93068F3C1E005C060E08C2F0E943D007C
:0C00F000CF5FC930C8F3E1CFF894FFCF18
:00000001FF
