:100000000C942A000C9434000C9434000C943400AA
:100010000C9434000C9434000C9434000C94340090
:100020000C9434000C9434000C9434000C94340080
:100030000C9434000C9434000C9434000C94340070
:100040000C9434000C9434000C9434000C94340060
:100050000C94340011241FBECFE5D8E0DEBFCDBF25
:100060000E943D000C9455000C94000087B3806BF7
:1000700087BB8DB181658DB908958FEF8ABB0E94D2
:10008000360080E090E00BC02FE33DE043E02150DC
:1000900030404040E1F700C000008BBB0196823E3B
:0E00A000910594F380E090E00895F894FFCF6E
:00000001FF
