:100000000C942A000C946C000C948D000C94AE009F
:100010000C9434000C9434000C9434000C94340090
:100020000C9434000C9434000C9434000C94340080
:100030000C9434000C9434000C9434000C94340070
:100040000C9434000C9434000C9434000C94340060
:100050000C94340011241FBECFE5D8E0DEBFCDBF25
:100060000E9436000C94CF000C94000085B796B720
:10007000816096BF85BF85B796B78D7F96BF85BFD8
:1000800085B796B7846096BF85BF85B796B78860F9
:1000900096BF85BF84B795B78F7B95BF84BF8BB75D
:1000A0009CB780649CBF8BBF8BB79CB780689CBF9C
:1000B0008BBF8BB79CB780629CBF8BBF789481B39A
:1000C000806281BB81B3806481BB81B3806881BB66
:1000D00082B38F7182BBFCCF1F920F920FB60F922B
:1000E00011242F938F939F9382B3806282BB2FEF53
:1000F00089E698E1215080409040E1F700C000007F
:100100008AB79BB780649BBF8ABF9F918F912F91C5
:100110000F900FBE0F901F9018951F920F920FB661
:100120000F9211242F938F939F9382B3806482BB8D
:100130002FEF89E698E1215080409040E1F700C020
:1001400000008AB79BB780689BBF8ABF9F918F9141
:100150002F910F900FBE0F901F9018951F920F9226
:100160000FB60F9211242F938F939F9382B38068C1
:1001700082BB2FEF89E698E1215080409040E1F763
:1001800000C000008AB79BB780629BBF8ABF9F9167
:100190008F912F910F900FBE0F901F901895F8948C
:0201A000FFCF8F
:00000001FF
