:100000000C942A000C9434000C9434000C943400AA
:100010000C9434000C9434000C9434000C94340090
:100020000C9434000C9434000C9434000C94340080
:100030000C9434000C9434000C9434000C94340070
:100040000C9434000C9434000C9434000C94340060
:100050000C94340011241FBECFE5D8E0DEBFCDBF25
:100060000E9462000C9481000C940000CF93DF93F7
:1000700000D01F92CDB7DEB719821BC01A8203C011
:100080009A819F5F9A839A819F3FD1F71B8203C019
:100090009B819F5F9B839B819F3FD1F71B8203C006
:1000A0009B819F5F9B839B819F3FD1F799819F5F3E
:1000B00099839981981710F30F900F900F90DF910B
:1000C000CF9108958FEF81BB82B3806282BB88EEAF
:1000D0000E94360012BA82B3806482BB88EE0E940E
:1000E000360012BA82B3806882BB88EE0E94360066
:1000F00012BA82B3806182BB88EE0E94360012BAC7
:06010000E3CFF894FFCFED
:00000001FF
